:020000041008E2
:10000000000008289568081001700810256E081077
:1000100005700810097008100D700810000000002D
:10002000000000000000000000000000C16E081089
:1000300011700810000000001570081019700810E9
:100040006F64081095640810BB640810E164081020
:10005000076508102D6508105365081079650810AC
:100060001D700810217008102570081029700810E4
:100070002D70081031700810357008103970081094
:1000800080B501000820DFF844251060C9B20120C6
:1000900000F088FF0820DFF84415086001BD2DE955
:1000A000F047060015001F00DFF824853000B8F87F
:1000B000002080B2904201D2012000E000200C001C
:1000C000DFF81095AF224946C0B201F008FBDFF817
:1000D00008A52000BAF8001080B2884201D20120A1
:1000E00000E00020B0224946C0B201F0F8FA280032
:1000F000B8F8001080B2884201D2012000E0002050
:10010000B1224946C0B201F0EAFA3800BAF800104C
:1001100080B2884201D2012000E00020B22249468C
:10012000C0B201F0DCFADFF8B8040078002801283A
:1001300003D9801E01282FD95CE02A20FFF7A0FFF9
:100140000021012000F02EFFB61C3100C9B20120B1
:1001500000F028FF0021012000F024FFAD1C290041
:10016000C9B2012000F01EFF2B20FFF789FF0021FC
:10017000012000F017FF641C2100C9B2012000F02B
:1001800011FF0021012000F00DFF7F1C3900C9B2D2
:10019000012000F007FF2DE02A20FFF771FF00216A
:1001A000012000F0FFFE761C3100C9B2012000F0F2
:1001B000F9FE0021012000F0F5FE6D1C2900C9B2F6
:1001C000012000F0EFFE2B20FFF75AFF0021012055
:1001D00000F0E8FEA41C2100C9B2012000F0E2FEFC
:1001E0000021012000F0DEFEBF1C3900C9B2012051
:1001F00000F0D8FE2C20FFF743FFBDE8F08700B5E4
:1002000085B0684601F089FA0120ADF80000DFF8FA
:10021000C0030088ADF80200DFF8BC030088ADF829
:100220000400DFF81C050078002803D002280FD056
:1002300007D30DE006208DF8060008208DF8070092
:1002400006E008208DF8060010208DF80700FFE773
:100250000FF2CD2003900FF211000490684601F0D8
:100260006CFA05B000BD0000F8B5DFF864432088E3
:10027000400001F0B5FA0500002000200820DFF85A
:10028000C4140860DFF850633088431E9BB2208896
:10029000421E92B200210020FFF701FF002007E07C
:1002A000DFF8A4140988020092B225F81210401C4D
:1002B0000100228889B29142F2D3002705E022880A
:1002C0002900012000F0C3FE7F1C3800318880B275
:1002D0008842F4D30820DFF874140860280001F085
:1002E00088FAF1BDDFF8F8120870087800280128B4
:1002F00003D9801E012809D910E08020DFF8D01230
:100300000880A020DFF8D012088007E0A020DFF8E6
:10031000C01208808020DFF8C01208807047DFF824
:1003200030241080DFF8200401807047F8B5D8B081
:1003300005000E0014002800DFF89412098880B22E
:10034000884201D2012000E00020DFF8887240F2EC
:10035000CB123900C0B201F0C2F93000DFF87812D8
:10036000098880B2884201D2012000E000204FF4C9
:10037000E6723900C0B201F0B2F900200020082076
:10038000DFF8C0130860DFF8B8030078002804D055
:10039000022800F0BF8046D3BCE0F31D9BB26A1D6B
:1003A00092B2310089B2280080B2FFF778FE0020B7
:1003B00000E0401C0100C9B206292EDA0621DFF850
:1003C00094232300DBB24B431A440300DBB21A44EC
:1003D00012F8C02C00230BE040AD1E00F6B24E43D5
:1003E00056FA80F6DFF860733F8825F8167010E043
:1003F0001D00EDB2082DDCDAD507EDD540AD1E00AD
:10040000F6B24E4356FA80F6DFF844733F8825F87B
:100410001670D2B252085B1CEAE7302240A90120D4
:1004200000F015FE76E016F10F039BB2EA1D92B2C2
:10043000310089B2280080B2FFF731FE002000E0D1
:10044000401C0100C9B208295EDADFF80C23210044
:10045000C9B2090111440300DBB21944B1F50071BE
:1004600009782300DBB21B011A440300DBB21A44F3
:10047000B2F5FC72127800231BE06D461E00F6B246
:10048000F60056FA80F6DFF8C0723F8825F816703D
:100490000CE0CD07F1D56D461E00F6B2F60056FA17
:1004A00080F6DFF8AC723F8825F81670C9B24908AB
:1004B0005B1C1D00EDB2082DEBDB00210DE06B464F
:1004C0000D00EDB2ED0055FA80F503EB4503DFF8C2
:1004D00078522D88A3F8805012E00B00DBB2082B75
:1004E000AEDAD307EBD56B460D00EDB2ED0055FA51
:1004F00080F503EB4503DFF858522D88A3F88050B0
:10050000D2B25208491CE8E780226946012000F077
:100510009EFDFFE70820DFF83412086059B0F0BDF7
:10052000F8B504000E0015002000DFF8A4100988BB
:1005300080B2884201D2012000E00020DFF89470F0
:1005400040F222223900C0B201F0C9F83000DFF8D1
:100550008810098880B2884201D2012000E0002082
:1005600040F223223900C0B201F0B9F800270EE0B2
:100570000CE0380080B22A5C310089B2380080B2C9
:10058000C00010FA84F080B2FFF7D0FE7F1C380064
:1005900080B2285C002817D0DFF8C001007800285E
:1005A00003D00228E4D0E4D3F0E7380080B22A5C1C
:1005B000310089B23B009BB20620434313FA84F01A
:1005C00080B2FFF7B3FEE1E7F1BD0000040B31405C
:1005D00074BF0228986B081076BF0228080B3140C0
:1005E000D65D03282DE9F84F804614009A46DFF8BF
:1005F000D0944046B9F8002080B2904201D2012048
:1006000000E000200F00DFF8BCB440F2F3225946AE
:10061000C0B201F064F83800DFF8A014098880B295
:10062000884201D2012000E000204FF43D7259467B
:10063000C0B201F054F8002C01D0012000E00020ED
:100640000C9D0B9E40F2F5225946C0B201F047F8CE
:100650000020002000200020B9F80000400001F038
:10066000BFF88146082037490860E819431E9BB24D
:1006700016EB0800421E92B2390089B2404680B2A1
:10068000FFF70DFD5FF0000B0A9FDDF8348007E0F7
:10069000320092B24946012000F0D9FC1BF1010B57
:1006A000280080B2834541D2380080B200FB0BF0B5
:1006B000290089B2B0FBF1F1504680B24143214498
:1006C00000220EE04FF6FF7029F8120008E04346C2
:1006D000DBB280B29BB29842F4D2002029F812001B
:1006E000521C300080B28242D2D2504680B200FB0F
:1006F00002F033009BB2B0FBF3F0085C4346DBB280
:10070000002BE4D10300DBB2DB08DBB2DB02844662
:100710005FFA8CFC5FEA9C0C5FFA8CFC53EA4C138A
:10072000C0F3C400034329F81230D9E70820DFF8EA
:1007300098130860484601F05CF8BDE8F18F0000AE
:100740007FBF0228040631407ABF022808063140E4
:1007500078BF0228C45E0810EC5108107FBF022841
:100760001FB5082002900420019001200090012371
:10077000D94A0021012000F0D1FC032300220121ED
:10078000B32001F0EEF8032300220121B42001F090
:10079000E8F8032301220121632001F0E2F803239A
:1007A00001220121582001F0DCF8CC4C2078FFF721
:1007B00099FDC7480188C7480088FFF7B0FD1020A1
:1007C000C74908600A2001F0C5F91020C549086032
:1007D000782001F0BFF90820BC4908601120FFF71C
:1007E0004FFC782001F0B6F9B120FFF749FC012158
:1007F000012000F0D7FB2C21012000F0D3FB2D219C
:10080000012000F0CFFBB220FFF73AFC01210120CC
:1008100000F0C8FB2C21012000F0C4FB2D21012099
:1008200000F0C0FBB320FFF72BFC0121012000F0FA
:10083000B9FB2C21012000F0B5FB2D21012000F097
:10084000B1FB0121012000F0ADFB2C21012000F0C3
:10085000A9FB2D21012000F0A5FBB420FFF710FC1F
:100860000721012000F09EFBC020FFF709FCA22118
:10087000012000F097FB0221012000F093FB84216E
:10088000012000F08FFBC120FFF7FAFBC5210120FA
:1008900000F088FBC220FFF7F3FB0A21012000F0E3
:1008A00081FB0021012000F07DFBC320FFF7E8FB66
:1008B0008A21012000F076FB2A21012000F072FB42
:1008C000C420FFF7DDFB8A21012000F06BFBEE2145
:1008D000012000F067FBC520FFF7D2FB0E210120AD
:1008E00000F060FB3620FFF7CBFB2078002805D016
:1008F00002280DD007D303280FD012E0C021012019
:1009000000F050FB0DE00021012000F04BFB08E05F
:10091000A021012000F046FB03E06021012000F04F
:1009200041FBE020FFF7ACFB0F21012000F03AFB78
:100930001A21012000F036FB0F21012000F032FBCC
:100940001821012000F02EFB2F21012000F02AFBAE
:100950002821012000F026FB2021012000F022FBAD
:100960002221012000F01EFB1F21012000F01AFBB4
:100970001B21012000F016FB2321012000F012FBB7
:100980003721012000F00EFB0021012000F00AFBBE
:100990000721012000F006FB0221012000F002FBEC
:1009A0001021012000F0FEFAE120FFF769FB0F2182
:1009B000012000F0F7FA1B21012000F0F3FA0F21CB
:1009C000012000F0EFFA1721012000F0EBFA3321AB
:1009D000012000F0E7FA2C21012000F0E3FA2921A0
:1009E000012000F0DFFA2E21012000F0DBFA302197
:1009F000012000F0D7FA3021012000F0D3FA39218C
:100A0000012000F0CFFA3F21012000F0CBFA0021B5
:100A1000012000F0C7FA0721012000F0C3FA0321EA
:100A2000012000F0BFFA1021012000F0BBFA2A20BB
:100A3000FFF726FB0021012000F0B4FA022101207B
:100A400000F0B0FA0021012000F0ACFA8221012070
:100A500000F0A8FA2B20FFF713FB0021012000F083
:100A6000A1FA0321012000F09DFA0021012000F0ED
:100A700099FA8321012000F095FAF020FFF700FB9E
:100A80000121012000F08EFAF620FFF7F9FA00218B
:100A9000012000F087FA3A20FFF7F2FA0521012041
:100AA00000F080FA2920FFF7EBFA082006490860D9
:100AB000FFF7DAFBFFF7A3FB1FBD000076BF02289C
:100AC00074BF0228986B08100806314004063140B4
:100AD0007ABF022878BF022880C3C901D65D0328E7
:100AE000040B3140080B3140C0F840127047D0F879
:100AF0000802C005C00D7047D0F80802C0F3C0302E
:100B0000704738B505002800FFF7F1FF0400280002
:100B1000FFF7F2FF0419002C01D1012000E00020B2
:100B2000C0B232BD0068C0F38130002801D18020FE
:100B300000E040207047016851F0004101607047BB
:100B40002030026861F39B6202607047022801D383
:100B5000012010E00B00DBB2042B01DB01200AE0D6
:100B6000DFF8A03503EB8000C9B2405C824201D3BC
:100B7000012000E000207047F8B504000F001500C8
:100B80001E00022C01D301202AE02A003900C9B23C
:100B90002000FFF7DBFF012801D1012020E00698AB
:100BA0003900C9B202291ED1B6F5803F19D22028DA
:100BB00017D24FF4C052DFF8501563030B4403EB18
:100BC000850313441F6866F317271F6064032144DD
:100BD00001EB850111440A6860F3C7020A60002036
:100BE000F2BD0120FCE7FFB2032F1FD1B6F1807FD9
:100BF0001AD2202818D24FF4E052DFF80C15630304
:100C00000B4403EB850313441F6807F0FF0757EA03
:100C100006271F606403214401EB850111440A6823
:100C200060F3C7020A60DAE70120D9E70120D7E7BD
:100C300000B20012C0B27047F8B505000E001700F0
:100C4000280000B2FFF7F4FF04002000C0B2022821
:100C500001D3012024E03A003100C9B22000C0B223
:100C6000FFF774FF012801D1012019E0DFF8981483
:100C70002000C0B2400308442A00D2B200EB820038
:100C8000D0F8000CF6B266F3092067F30700E4B26F
:100C900064032144EDB201EB8501C1F8000C002092
:100CA000F2BD70B504000D001600022C01D3012026
:100CB0001DE032002900C9B22000FFF747FF0128DC
:100CC00001D1012013E0DFF840146003085850F010
:100CD000004050F0407050F47F00EDB265F3092001
:100CE00066F307006203885064030859002070BD52
:100CF0000100C020C9B2002905D0022907D004D3C1
:100D0000032906D006E0122004E0622002E07A20E7
:100D100000E01A20C0B270470100C020C9B200290B
:100D200005D0022907D004D3032906D006E01120FC
:100D300004E0612002E0792000E01920C0B2704791
:100D40000100C020C9B2002905D0022907D004D370
:100D5000032906D006E0102004E0602002E078209D
:100D600000E01820C0B270470100C020C9B20029BD
:100D70000BD002290DD00AD304290ED00BD306299B
:100D80000FD00CD307290ED00EE013200CE0142056
:100D90000AE0632008E0642006E07B2004E02920CC
:100DA00002E01B2000E01C20C0B2704701000020C0
:100DB000C9B2002905D0022907D004D3032906D0DF
:100DC00006E0132004E0132002E0132000E01320CB
:100DD000C0B2704701000020C9B2002905D0022925
:100DE00007D004D3032906D006E0132004E0132023
:100DF00002E0132000E01320C0B270470100002081
:100E0000C9B2002905D0022907D004D3032906D08E
:100E100006E0132004E0132002E0132000E013207A
:100E2000C0B2704701000020C9B200290BD00229CE
:100E30000DD00AD304290ED00BD306290FD00CD322
:100E400007290ED00EE013200CE013200AE0132037
:100E500008E0132006E0132004E0132002E0132032
:100E600000E01320C0B27047C9B2082902D010298F
:100E700046D096E0DFF894120200D2B251F8222058
:100E8000126832F440420300DBB251F823301A609A
:100E90000200D2B251F82220D2F8002252095201A7
:100EA0000300DBB251F82330C3F800220200D2B2B3
:100EB00051F82220D2F8002252F007020300DBB2E0
:100EC00051F82330C3F800220200D2B251F8222098
:100ED000D2F80023520952010300DBB251F823304B
:100EE000C3F800230200D2B251F82220D2F8002326
:100EF00052F00702C0B251F82000C0F8002350E0C1
:100F0000DFF808120200D2B251F82220126832F43F
:100F100040420300DBB251F823301A600200D2B223
:100F200051F82220126852F480420300DBB251F8DB
:100F300023301A600200D2B251F82220D2F80022E7
:100F4000520952010300DBB251F82330C3F80022EA
:100F50000200D2B251F82220D2F8002252F00F0241
:100F60000300DBB251F82330C3F800220200D2B2F2
:100F700051F82220D2F80023520952010300DBB2BB
:100F800051F82330C3F800230200D2B251F82220D6
:100F9000D2F8002352F00F02C0B251F82000C0F87E
:100FA00000237047F8B504000E0008212000C0B2ED
:100FB000FFF75AFFDFF858512000C0B2285C08281C
:100FC0000FD02000C0B2285CC010DFF8481111EB30
:100FD000C01101202200D2B2AA5C12F00702904098
:100FE0000860DFF82871F6B231002000C0B257F86F
:100FF0002000FFF779FD2000C0B257F82000FFF76E
:1010000091FD06002000C0B257F82000FFF76FFDE9
:101010008642F0D02000C0B257F82000FFF771FDE3
:101020000028F7D02000C0B2285C08280ED020008D
:10103000C0B2285CC010DFF8E01011EBC011012035
:10104000E4B22A5D12F0070290400860F1BD2DE97C
:10105000F84307000D00140010213800C0B2FFF75C
:1010600003FFDFF8AC603800C0B2305C08280FD056
:101070003800C0B2305CC010DFF8981011EBC0111E
:1010800001203A00D2B2B25C12F007029040086030
:10109000DFF8788029883800C0B258F82000FFF7C0
:1010A00023FDAD1C3800C0B258F82000FFF73AFD10
:1010B00081463800C0B258F82000FFF718FD81457E
:1010C000F0D0641E002CE3D13800C0B258F82000E4
:1010D000FFF717FD0028F7D03800C0B2305C0828B1
:1010E0000ED03800C0B2305CC010DFF82C1011EB0D
:1010F000C0110120FFB2F25D12F0070290400860BB
:10110000BDE8F183846F0810000004403CBF022852
:10111000B05D032804003140080031402DE9F04F54
:101120009DB004000D001E0092000023A148002184
:1011300000F0A0FD0700342100220DF10408404614
:1011400000F0B0FE3C2100220DF13808404600F0CE
:10115000A9FE20003100C0B2C9B2884201D10120ED
:1011600000E00020DDF89890DFF84CA24FF46472A4
:101170005146C0B200F0B3FA30004946C0B2C9B21D
:10118000884201D1012000E00020DDF89C8040F27F
:1011900091325146C0B200F0A2FA062002904846B1
:1011A000C0B2FFF717FE8DF80C004846C0B2FFF73B
:1011B000B3FD82465FF0080B4846C0B2FFF7ACFDB6
:1011C000DFF8F89101AA9AFBFBF10BFB11AA51463B
:1011D000C0B2C010C001484400F027FF06200290B2
:1011E0003000C0B2FFF7E2FD8DF80C003000C0B255
:1011F000FFF77EFD82465FF0080B3000C0B2FFF7BC
:1012000077FD01AA9AFBFBF10BFB11AA5146C0B274
:10121000C010C001484400F008FF4046C0B2042896
:101220001ED0082002904046C0B2FFF7E7FD8DF8BF
:101230000C004046C0B2FFF783FD06005FF0080ACD
:101240004046C0B2FFF77CFD01AA96FBFAF10AFB0B
:1012500011663100C0B2C010C001484400F0E5FE84
:10126000289E3000C0B208281ED006200290300010
:10127000C0B2FFF7D7FD8DF80C003000C0B2FFF709
:1012800073FD80465FF0080A3000C0B2FFF76CFDC6
:1012900001AA98FBFAF10AFB11884146C0B2C010BE
:1012A000C001484400F0C1FE2000C0B2032803D2B0
:1012B0002000C0B2401C00E000202200D2B2121D6B
:1012C000032110F58F7000B2FFF7B6FC2000C0B20A
:1012D000032803D22000C0B2401C00E0002010F51B
:1012E0008F7000B2FFF7A4FC17F01F010091C7F345
:1012F00057132200D2B2121D0321C0B2FFF73CFCEB
:101300002000C0B2032803D22000C0B2401C00E07D
:10131000002010F58F7000B2FFF78AFC2200D2B2D5
:10132000121D0321C0B2FFF7BCFCEDB2002D05D0A9
:10133000022D09D005D3032D09D00AE0002010901A
:1013400007E00120109004E00220109001E003204B
:10135000109001200E9000200F9004201190082082
:1013600012900820139001208DF8500001208DF874
:1013700053000F4D00220EA92000C0B255F82000E6
:1013800000F092FE00212000C0B255F82000FFF7C7
:10139000D7FB2000C0B255F82000FFF7CCFB034874
:1013A000E4B206551DB0BDE8F08F0000B05D032823
:1013B0003CBF022800809698046C08100000314061
:1013C00082B000200190002000900020019009E0F0
:1013D0000098401C00900098B0F5005FF8D3019889
:1013E000401C01900198B0F5805F02D2002000906F
:1013F000F1E702B0704780B50100002001F031F93B
:1014000001BD2DE9F043ADF5137D070088461600B8
:101410001C000020ADF802000020ADF80000002004
:1014200002900020ADF804000020ADF80600404610
:1014300001F036FB0290DFF870532888002801D0B5
:1014400028698047DFF864030078002800F03381C2
:101450002888002800F01181BDF90600411CADF874
:1014600006103A00010089B20020EB689847474611
:10147000404601F015FB02906888A97990FBF1F0D5
:10148000ADF804003800471C00780028FAD100208D
:10149000ADF800000EE07F1E38782F2802D0387893
:1014A0005C2804D1BDF80000401CADF80000029893
:1014B000401E0290BDF80000022802DA02980028BF
:1014C000E9D50298002806D47A1CDFF8E41253A864
:1014D00001F002FB0EE0BDF80000002805D13A0043
:1014E000B44953A801F0F8FA04E03A00B04953A80F
:1014F00001F0F2FA0020ADF8020042E0BDF8001061
:10150000BDF80020BDF8023053AF9BB2BDF9040016
:10151000434313FA82F0385C43AA89B25054BDF8B1
:101520000000401CADF80000BDF8000080B2BDF91D
:10153000041088420EDA53A801F0B2FABDF8002078
:10154000BDF802309BB2BDF904104B4313FA82F18F
:101550008842D3D2002043A9BDF800208854BDF9A9
:101560000600411CADF8061043AAE97911FB00F111
:1015700089B20020EB689847BDF80200401CADF826
:101580000200BDF8027053A801F08AFABDF90410F8
:10159000B0FBF1F0401CBFB2874203D20020ADF88F
:1015A0000000C1E73200844953A801F095FABDF963
:1015B0000600411CADF8061053AAE97911FB00F1B1
:1015C00089B20020EB689847002C74D00020ADF859
:1015D000020041E0BDF80010BDF80020BDF8023067
:1015E0009BB2BDF90400434313FA82F0205C43AA86
:1015F00089B25054BDF80000401CADF80000BDF8A1
:10160000000080B2BDF9041088420EDA200001F01B
:1016100047FABDF80020BDF802309BB2BDF90410B6
:101620004B4313FA82F18842D4D2002043A9BDF87B
:1016300000208854BDF90600411CADF8061043AAED
:10164000E97911FB00F189B20020EB689847BDF8F9
:101650000200401CADF80200BDF80260200001F05D
:101660001FFABDF90410B0FBF1F0401CB6B286427F
:1016700021D20020ADF80000C1E74FF480710022B4
:101680000DF10C09484600F00DFC3800A9688847A8
:10169000002C07D0009433004246484903A801F0CB
:1016A0001BFA05E033004246454903A801F014FA4D
:1016B00003A8A96888470DF5137DBDE8F08310B530
:1016C0003A480078002809D03F4C2100002000F063
:1016D000D6FF012221003B4801F083FA10BD38B546
:1016E0000C001500C0B2002803D13848007800284B
:1016F00000D131BD36490878002800D0FEE70878CF
:10170000401C087001F076FC00232A0021003148BB
:10171000FFF777FEFFF754FEF6E7002101804FF652
:10172000FF7141808180FF218171C1710021816041
:101730000021C1600021016170471B4902880A80B5
:1017400042884A8082888A8082798A71C279CA7185
:1017500082688A60C268CA60006908610120134912
:101760000870704700B585B06846FFF7D6FF1A4885
:1017700002906846FFF7E1FF05B000BD80B5FFF7B6
:10178000F1FF002300225FF4E131002001F09DF819
:101790004023124A00210B4801F0C3FB0121002025
:1017A00001F014F801BD0000645D0328CD5D03283D
:1017B000606F0810406F08106C6F0810A46E08105E
:1017C000286F0810345D0328CE5D03287EBF0228F1
:1017D000CF5D0328506F0810F7130810C45C03286E
:1017E00010B501F02FFC040008BF01F0C9FC204631
:1017F00010BD01F0C8BCF0B402461068956813181B
:10180000506803EB5004C00748BF4D44A3422DD09D
:1018100013F8016B16F0030004BF13F8010BC01C92
:1018200031090F2907D113F8011B0F3103E013F819
:10183000017B05F8017B401EF9D10029E6D013F8A1
:10184000010BC6F38106032E08BF13F8016B00EBF2
:101850000620404228440026B71E8F421EBF10F8C3
:10186000017B05F8017B761CF6D1CFE7F0BC02F1D5
:101870000C0070470069C84010F001007047012259
:1018800012FA01F181607047012212FA01F1416000
:10189000704710B48900436C0F248C40A34312F0AE
:1018A0000F0212FA01F11943416410BC704780B570
:1018B000C9B200290ED00100C9B2082291FBF2F38F
:1018C00002FB1311494AC0B2C010C0011044FFF717
:1018D000D6FF0DE00100C9B2082291FBF2F302FB32
:1018E0001311424AC0B2C010C0011044FFF7CCFF30
:1018F00001BD80B50100C9B2082291FBF2F302FBE1
:1019000013113A4AC0B2C010C0011044FFF7B2FF31
:10191000C0B202BD10B5C9B200290BD1D2B2002AA3
:1019200002D0022A02D003E00F220BE00B2209E0D2
:101930000A2207E0D2B2042A01D10C2200E00E22D2
:1019400012F007020100C9B2082391FBF3F403FB74
:101950001411264BC0B2C010C0011844FFF799FF04
:1019600010BD2DE9F8418DB004000E0015001F00D8
:1019700034210022E846404600F094FAF6B2002EE8
:101980000ED1FFB2002F02D0022F03D005E00F20AE
:1019900001900DE0082001900AE00820019007E086
:1019A000FFB2042F02D10F20019001E00E20019020
:1019B0002000C0B2C0280FD02100C9B208206A465A
:1019C00091FBF0F300FB131108482300DBB2DB109E
:1019D000DB01184400F029FB2900C9B22000C0B285
:1019E000FFF765FF0EB0BDE8F08100000000314058
:1019F000022801D301200FE00B00DBB2042B01DB36
:101A0000012009E0954B03EB8000C9B2405C8242A3
:101A100001D3012000E000207047F8B506000F0058
:101A200015001C00022E01D301201CE02A00390001
:101A3000C9B23000FFF7DCFF012801D1012012E01C
:101A40003800C0B2002811D1B4F5807F0CD2844890
:101A50007603304400EB850010F58050016864F394
:101A60000F2101600020F2BD0120FCE7FFB2012F31
:101A700010D1B4F5803F0BD279487603304400EBA7
:101A8000850010F5A050016864F317210160E9E7B3
:101A90000120E8E70120E6E700B20012C0B270477B
:101AA000F8B505000E001700280000B2FFF7F4FF9C
:101AB00004002000C0B2022801D3012023E03A0034
:101AC0003100C9B22000C0B2FFF792FF012801D156
:101AD000012018E062492000C0B2400308442A00F7
:101AE000D2B200EB8200D0F8000CF6B266F3092007
:101AF00067F30700E4B264032144EDB201EB850112
:101B0000C1F8000C0020F2BD70B504000D001600F5
:101B1000022C01D301201CE032002900C9B22000B0
:101B2000FFF766FF012801D1012012E04C49600354
:101B3000085850F0004050F0407050F47F00EDB273
:101B400065F3092066F307006203885064030859AF
:101B5000002070BDF8B504004FF4FA504443414DE5
:101B6000414E00212878C001304401F0D4FB14E03C
:101B70002878C001304401F0D0FBB842F8D33B4F85
:101B80003C192878C001304401F0C7FB3F183900E8
:101B90002878C001304401F0BEFB4CF25137BC4202
:101BA000E6D22878C001304401F0B7FB8442F8D275
:101BB000F1BD38B594B0502100226C46200000F0F1
:101BC00071F92B4C00220121B4F90000FFF768FFE6
:101BD000B4F90000FFF760FF092300220121C0B221
:101BE000FFF71BFFB4F90000FFF756FF00220121A9
:101BF000C0B2FFF789FF5FF0FF30009000208DF842
:101C0000040000208DF8050000208DF8060000205B
:101C10008DF8080003208DF8440001201290012067
:101C20008DF807000F4C104D69462078C0012844FC
:101C300001F0ACFA2078C001284401F067FB0021D4
:101C40002078C001284401F066FB2078C0012844B8
:101C500001F073FB15B030BD00000000846F081068
:101C60000000044080BF022800005940B03CFFFF44
:101C70007CBF0228BBBBE1B1B2F5803F80F07E8023
:101C8000022A1ED98C46B1FBF2F102FB11C31B04E0
:101C900043EA1043B3FBF2FC02FB1C3380B240EA80
:101CA0000343B3FBF2F002FB103240EA0C40002386
:101CB0007047022A05D98446B0FBF2F002FB10C23D
:101CC00070474AB105D100F0010249085FEA3000CF
:101CD000704700220023704701F036BB0B00020062
:101CE000002100207047904271EB030CF6D3B3F54E
:101CF000803F2FD2F0B5B3FA83F7B1FA81F4A7F1A0
:101D00000F0E3D1B5340CEF1200602FA0EF2F341B6
:101D10005340B5F10F0746D80F3C2C444140C4F165
:101D20002006A040F1414140B1FBF3F603FB161140
:101D3000A2FB0645001BA94102D2761E801859411C
:101D400080EA010221FA0EF362FA0EF200215A40F3
:101D50003046F0BD30B4B1FBF3FC03FB1C11A2FB19
:101D60000C45001BA94103D2ACF1010C801859416C
:101D700030BC02460B46604600217047B2F1807FBE
:101D800065D3F0B5B2FA82F7B1FA81F4C7F10F0664
:101D90003D1B22FA06F307F1110EF24120355A409D
:101DA000B5F10F07B8D94140C4F12006A040F14178
:101DB0004140B1FBF3FC03FB1C11A2FB0C45001BD3
:101DC000A94103D2BCF1010C801859410F2F12D345
:101DD0000F3FC90341EA5041B1FBF3F603FB161173
:101DE000A2FB0645D4EBC030A94102D2761E801872
:101DF000594146EACC3C07B34140C7F12006B84000
:101E0000F1414140B1FBF3F603FB1611A2FB06457D
:101E1000001BA94102D2761E8018594180EA0102B6
:101E200021FA0EF3C7F1200462FA0EF20CFA07F061
:101E30005A402CFA04F13043F0BD80EA010221FA45
:101E40000EF3002162FA0EF260465A40F0BD8C4655
:101E5000B1FBF2F102FB11C31B0243EA1063B3FBB7
:101E6000F2FC02FB1C331B024CEA002043EA106325
:101E7000B3FBF2FC02FB1C331B024CEA002043EADA
:101E80001063B3FBF2FC02FB1C331B024CEA002084
:101E900043EA1063B3FBF2FC02FB1C324CEA002065
:101EA0000023704762F30F2262F31F42401810F0C4
:101EB000030308D0C91A1FD3DB0748BF00F8012D60
:101EC00028BF20F8022D130030B4144615461039EF
:101ED00028BF20E93C00FAD8490728BF20E90C00B8
:101EE00048BF40F8042D890028BF20F8022D48BFC4
:101EF00000F8012D30BC7047C91818BF00F8012D3B
:101F0000CB0728BF00F8012D70470268531C0360FF
:101F10001170704730B4614B1818C009604C14EB55
:101F2000001404290DD223681F25C8008540AB4347
:101F3000D2B212F01F02C90012FA01F11943216056
:101F40000CE0091F63681F25C8008540AB43D2B26F
:101F500012F01F02C9008A401A43626030BC704709
:101F6000002A04D1012212FA01F1416003E00122AA
:101F700012FA01F18160704710B48900436C0F249C
:101F80008C40A34312F00F0212FA01F1194341648D
:101F900010BC704710B4836C01248C40A34312F032
:101FA000010212FA01F11943816410BC704710B4A8
:101FB000C36C01248C40A34312F0010212FA01F118
:101FC0001943C16410BC704710B449001031C36C90
:101FD00003248C40A34312F0030212FA01F11943C7
:101FE000C16410BC70474269012212FA01F14161DB
:101FF0004069704710B4836901248C40A34312F0F8
:10200000010212FA01F11943816110BC704710B44A
:102010004900036C03248C40A34312F0030212FA1C
:1020200001F11943016410BC7047F8B505000E00BA
:1020300014000027002D2ED0002C2CD02268310057
:102040002800FFF78DFF227A31002800FFF762FF9A
:10205000626931002800FFF79DFFA2693100280066
:10206000FFF7A5FFE26931002800FFF7ADFF6268C6
:1020700031002800FFF780FFE26831002800FFF7F9
:10208000C6FF31002800FFF7AEFF226931002800AB
:10209000FFF7B0FF00E0034F3800F2BD0000CFBFF4
:1020A0000000304001005A002DE9F041DFF8D03146
:1020B0001C00DFF8D051D5F800C0DFF8CC512D68F6
:1020C000DFF8C8613668DFF8C8713F685FF0000E5E
:1020D0005FF0000E002800F0D080002900F0CD80D5
:1020E0004C68002C01D18C6805E04C68022C01D1B1
:1020F000002400E00224D1F810E0D1F81480C64595
:1021000002D3D1F810E001E0D1F814E0BEF1090FDC
:1021100008D23CF4404C91F82130002B12D05CF4F2
:10212000807C11E0BEF1110F03D2012363F38F3CD9
:10213000F1E7BEF1210F03D2022363F38F3CEAE7FC
:1021400018009BE03CF4807CCB685B1E13F00F030F
:102150005FEA1C1C5FEA0C1C53EA0C0C012363F3BE
:10216000196CC0F800C00B7F002B01D0002300E0E9
:10217000012363F300054B681B0963F34105CB7E24
:1021800063F304154B7E63F345150B68012B01D1F6
:10219000012300E0002363F3DF7523005B0863F392
:1021A000820564F3C3054B7F63F308258B7F63F3DC
:1021B0004925CB7F63F38A2591F8203063F3CB2543
:1021C0000B7913F0030363F3196505620B7E63F368
:1021D00008278B7E63F349270B695B1E13F01F03EF
:1021E0007F097F011F43C0F8007391F8243003F08A
:1021F000FF0310F5417425682D0A2D022B4323603F
:102200000B7E63F308264B695B1E13F01F037609F0
:1022100076011E43C0F8006291F82C3003F0FF03F2
:1022200010F5017425682D0A2D022B4323600B6BDA
:10223000C0F8883F8B6AC0F8C83F91F8383010F575
:102240007064256863F34925256091F8391010F50D
:1022500074631C6861F3CB241C600021C0F8C81EA5
:10226000002A09D000201060002090610020D0607A
:102270000020D0610748106200242000BDE8F081F2
:102280000140AA00AC6F0810B06F0810B46F0810BE
:10229000B86F0810EFCDAB00022801D3012010E089
:1022A0000B00DBB2042B01DB01200AE0DFF8AC37C6
:1022B00003EB8000C9B2405C824201D3012000E000
:1022C00000207047F8B504000F0015001E00022C16
:1022D00001D301202AE02A003900C9B22000FFF70B
:1022E000DBFF012801D1012020E006983900C9B2A6
:1022F00002291ED1B6F5803F19D2202817D24FF4FB
:10230000C052DFF85C1763030B4403EB85031344EF
:102310001F6866F317271F606403214401EB8501E2
:1023200011440A6860F3C7020A600020F2BD012070
:10233000FCE7FFB2032F1FD1B6F1807F1AD220280D
:1023400018D24FF4E052DFF8181763030B4403EB85
:10235000850313441F6807F0FF0757EA06271F602D
:102360006403214401EB850111440A6860F3C7024C
:102370000A60DAE70120D9E70120D7E700B20012AE
:10238000C0B27047F8B505000E001700280000B273
:10239000FFF7F4FF04002000C0B2022801D301209F
:1023A00024E03A003100C9B22000C0B2FFF774FF48
:1023B000012801D1012019E0DFF8A4162000C0B2E5
:1023C000400308442A00D2B200EB8200D0F8000C8F
:1023D000F6B266F3092067F30700E4B26403214410
:1023E000EDB201EB8501C1F8000C0020F2BD70B523
:1023F00004000D001600022C01D301201DE0320064
:102400002900C9B22000FFF747FF012801D10120B0
:1024100013E0DFF84C166003085850F0004050F00D
:10242000407050F47F00EDB265F3092066F30700B9
:102430006203885064030859002070BDD0F840033F
:102440007047D0F80803C005C00D7047C0F84012AF
:102450007047D0F80802C005C00D7047D0F80802D8
:10246000C0F3C030704738B505002800FFF7F1FF12
:1024700004002800FFF7F2FF0419002C01D101200D
:1024800000E00020C0B232BDC0F8C81F7047D0F8CD
:10249000C80F7047C0F8881F7047D0F8880F704782
:1024A000016851F000410160704738B50400150023
:1024B000C9B2002906D002291ED010D3042935D074
:1024C00027D340E0DFF89C05A06001202073112095
:1024D00060734FF48C70E0811220208239E0DFF8C5
:1024E0008805A060012020731120607340F21D1048
:1024F000E0816B2020822CE0DFF87005A0600120D5
:102500002073112060734FF48E70E0816A20208266
:102510001FE0DFF85C05A0600220207311206073CB
:1025200040F21B10E0816920208212E0DFF84405B0
:10253000A06001202073132060734FF48D70E08140
:102540006820208205E07C22DFF82C150020FFF7B0
:10255000C6F8EDB2002D06D0022D1ED010D3042DEA
:1025600035D027D340E0DFF8FC0420600020207144
:10257000112060714FF48C70E0811220208239E0CC
:10258000DFF8E4042060002020711120607140F227
:102590001D10E0816B2020822CE0DFF8D004206049
:1025A00000202071112060714FF48E70E0816A204C
:1025B00020821FE0DFF8B804206001202071112084
:1025C000607140F21B10E0816920208212E0DFF888
:1025D000A404206000202071132060714FF48D70DE
:1025E000E0816820208205E0A822DFF88C1400201A
:1025F000FFF775F831BD10B5C0B2002806D002282B
:102600000AD006D304280DD009D30EE0DFF86C44BD
:1026100011E0DFF86C440EE0DFF868440BE0DFF80F
:10262000684408E0DFF8644405E0BD22DFF84814A0
:102630000020FFF754F8200010BD38B50400DFF883
:102640005054C9B22000C0B255F82000FFF7FEFE7A
:102650002000C0B255F82000FFF705FF0028F7D092
:1026600031BD38B504000D0005E029782000C0B266
:10267000FFF7E3FF6D1C28780028F6D131BD70B557
:1026800004000D000020DFF808642000C0B256F8F6
:102690002000FFF7D6FE002807D0E4B256F8240049
:1026A000FFF7CCFE2870012000E00020C0B270BD12
:1026B00070B505000C00DFF8D8632800C0B256F8EA
:1026C0002000FFF7EAFE4008400001002800C0B2E9
:1026D00056F82000FFF7DEFE2800C0B256F82000B2
:1026E000FFF7DBFE30F0020001002800C0B256F810
:1026F0002000FFF7CFFE2800C0B256F82000FFF7F9
:10270000CCFE30F0200001002800C0B256F82000B6
:10271000FFF7C0FE2800C0B256F82000FFF7BDFE4C
:1027200030F0400001002800C0B256F82000FFF74A
:10273000B1FE2800C0B256F82000FFF7AEFE30F020
:10274000100001002800C0B256F82000FFF7A2FEDA
:102750002800C0B256F82000FFF79FFE30F48070CA
:1027600001002800C0B256F82000FFF793FE2800B1
:10277000C0B256F82000FFF790FE30F480600100F0
:102780002800C0B256F82000FFF784FE002C0ED0BF
:102790002800C0B256F82000FFF779FE50F4007010
:1027A0000100EDB256F82500FFF774FE0DE0280099
:1027B000C0B256F82000FFF76AFE30F40070010046
:1027C000EDB256F82500FFF765FE70BD70B5050047
:1027D0000C00DFF8BC622800C0B256F82000FFF7FA
:1027E00056FE4008400001002800C0B256F8200004
:1027F000FFF74AFE2800C0B256F82000FFF747FE58
:1028000030F0080001002800C0B256F82000FFF7A1
:102810003BFE2800C0B256F82000FFF738FE30F02B
:10282000200001002800C0B256F82000FFF72CFE5F
:102830002800C0B256F82000FFF729FE30F480705F
:1028400001002800C0B256F82000FFF71DFE280046
:10285000C0B256F82000FFF71AFE30F400700100F5
:102860002800C0B256F82000FFF70EFE2800C0B2C4
:1028700056F82000FFF70BFE30F40060010028003E
:10288000C0B256F82000FFF7FFFD002C0ED0280044
:10289000C0B256F82000FFF7FAFD50F00400010026
:1028A000EDB256F82500FFF7EFFD0DE02800C0B2AD
:1028B00056F82000FFF7EBFD30F004000100EDB208
:1028C00056F82500FFF7E0FD70BD2DE9F841A7B0EF
:1028D00005000F00160028003100C0B2C9B28842BE
:1028E00001D1012000E000201C00DFF88C814FF4B2
:1028F000CE724146C0B2FEF7F2FE28002100C0B2FF
:10290000C9B2884201D1012000E0002040F29D12AE
:102910004146C0B2FEF7E3FE02A8142100F016FD06
:10292000342100220DF168084046FFF7BBFA4C2124
:1029300000220DF11C084046FFF7B4FAFF003A00F0
:10294000002354480021FFF795F907002200D2B276
:102950003100C9B202A8FFF7A8FD08201B909DF81E
:102960000D008DF870001AAA9DF80C100298FFF760
:102970005CFB06201B909DF80D008DF870001AAAD4
:102980009DF814100498FFF750FB002007900820D2
:1029900008900820099002200B9000200C90002045
:1029A0001290002014903A4C2800C0B254F8200035
:1029B00000F012FE38492A00D2B2382042430A44BD
:1029C00007A92800C0B254F8200000F0C3FC28007A
:1029D000C0B254F82000FFF763FD2A00D2B20321F1
:1029E000BDF91600FFF7CEFCBDF91600FFF7C6FCD7
:1029F00017F01F010091C7F357132A00D2B2032129
:102A0000C0B2FFF75FFCBDF91600FFF7B7FC2A0064
:102A1000D2B20321C0B2FFF7EAFCBDF91800ADF84D
:102A200000000320ADF8020001208DF80400072209
:102A30001A482900C9B250F82110684600F0E6FA99
:102A400000212800C0B2FFF7C1FE00212800C0B25B
:102A5000FFF72EFE28B0BDE8F0810000846F08105B
:102A600000000440000031400002314000053140C8
:102A70008008314000073140706C08100000604051
:102A800000006540000064400000634000006240B8
:102A900060BF022800809698BC5903284CBF0228CA
:102AA00000F10103810704D010F8011B820781B1F6
:102AB000FAD10268A2F10131914311F0803104BFD3
:102AC00050F8042FF6E709BAB1FA81F100EBD10012
:102AD000401CC01A704700000CB430B583B00A46E1
:102AE00006A90291044600250194009502AB01A9B4
:102AF000084878441E3000F0C3FD019A1570002884
:102B00004EBF04460198041B204603B030BC5DF85C
:102B10000CFB00BFF7F3FFFF82688918816003E0B8
:102B200082684169521A8260816842699142F7D293
:102B30007047C2688918C16003E0C2684169521ACF
:102B4000C260C16842699142F7D2704770B5040013
:102B5000002C01D0012000E000205422DFF8FC13FB
:102B6000C0B2FEF7BCFD0025207850F001002070B7
:102B70000020A0600020E06060692061607800288B
:102B800003D0022810D007D315E0616900226668DF
:102B90003000FFF787F90EE061694900002266689E
:102BA0003000FFF77FF906E061698900002266685E
:102BB0003000FFF777F9002020702800C0B270BD08
:102BC00010B50400002C01D0012000E0002070228C
:102BD000DFF88813C0B2FEF782FD60692169401AF0
:102BE00010BD2DE9F84305001600002D01D001208D
:102BF00000E000200C00AA22DFF86013C0B2FEF74C
:102C00006EFD00270020002C01D10327B5E02878B5
:102C100010F0050F01D00427AFE0287850F0040031
:102C200028702869B042C0F0A380D5F81480A86845
:102C3000B8EB0008B04567D26878002803D00228B6
:102C400041D01FD390E0424621006868AB6800EB9A
:102C50000309484600F0A6FD41462800FFF75CFF47
:102C6000B6EB080204EB08016868AB6800EB0304EC
:102C7000200000F097FDB6EB080841462800FFF75A
:102C80004BFF71E05FEA480221006868AB6800EB27
:102C90004309484600F086FD41462800FFF73CFF07
:102CA000B6EB0802520004EB48016868AB6800EB21
:102CB0004304200000F076FDB6EB080841462800EA
:102CC000FFF72AFF50E05FEA880221006868AB68DE
:102CD00000EB8309484600F065FD41462800FFF7F8
:102CE0001BFFB6EB0802920004EB88016868AB6832
:102CF00000EB8304200000F055FDB6EB08084146C8
:102D00002800FFF709FF2FE06878002803D0022889
:102D10001DD00ED328E0320021006868AB6800EBBC
:102D20000304200000F03EFD31002800FFF7F4FE10
:102D30001AE0720021006868AB6800EB43042000D1
:102D400000F030FD31002800FFF7E6FE0CE0B20095
:102D500021006868AB6800EB8304200000F022FDCE
:102D600031002800FFF7D8FE2869861B2E6100E09D
:102D70000527287810F0FB0028703800C0B2BDE8A5
:102D8000F2832DE9F04705000E001F00002D01D051
:102D9000012000E000201400DFF8C08140F25B1247
:102DA0004146C0B2FEF79BFC002C01D0012000E0A0
:102DB00000204FF4AE724146C0B2FEF790FC5FF0C7
:102DC000000800200020002E02D15FF003088BE0F5
:102DD000297811F0030F03D020605FF006089CE013
:102DE0002800FFF7EDFE2168884209D220605FF0DD
:102DF0000708002804D1287810F0F70028708CE02C
:102E0000287850F008002870D5F81490E868B9EBDD
:102E100000092068814522D36878002803D0022861
:102E200013D008D35CE022686868E9680144300088
:102E300000F0B8FC54E0226852006868E96800EBD2
:102E40004101300000F0AEFC4AE022689200686860
:102E5000E96800EB8101300000F0A4FC40E06878F4
:102E6000002803D0022827D011D339E04A466868E9
:102E7000E9680144B246504600F094FC2268B2EB87
:102E8000090269684E44300000F08CFC28E05FEADB
:102E900049026868E96800EB4101B246504600F01B
:102EA00081FC2268B2EB09025200696806EB490610
:102EB000300000F077FC13E05FEA89026868E96897
:102EC00000EB8101B246504600F06CFC2268B2EB88
:102ED00009029200696806EB8906300000F062FC86
:102EE000287810F0F7002870FFB2002F15D128784D
:102EF0000B2802D15FF002080FE0287850F00200A2
:102F0000287021682800FFF714FE296920684118FD
:102F10002961287810F0FD0028704046C0B2BDE855
:102F2000F087F8B504000E0017001D00002C01D03A
:102F3000012000E000204FF407720849C0B2FEF7FC
:102F4000CEFB002067600021217066700021A16027
:102F50000021E16025616561C0B2F2BD2C6B0810F3
:102F6000010009B2002908D4012210F01F018A4093
:102F70001B4900B2400941F820207047010009B206
:102F8000002908D4012210F01F018A40154900B21F
:102F9000400941F820207047020012B2002A04D4F0
:102FA0004901114A00B2115407E049010F4A00B229
:102FB00010F00F00104400F8041C7047002800D1E6
:102FC00062B60B480168491C0160704772B6084937
:102FD0000868002802D00868401E0860086870472A
:102FE00000E100E080E200E000E400E018ED00E035
:102FF000AC5D032880B5FFF7E9FF00F027FC01BDB9
:1030000080B5C9B200B2FFF7C7FF01BD70B50400BB
:103010000D001600200000F029FC2900B4F9000082
:1030200000F063FC3100C9B2B4F90200FFF7E8FF19
:10303000B4F90200FFF7A2FFB4F90200FFF790FF16
:1030400070BD000010B50446AFF30080204600F0CC
:1030500005F80446AFF30080204610BDF8B500F136
:103060000F04E408E400A0422BD2082C04D2082468
:1030700002E0083000F047F8DFF80021136819007B
:1030800005D1002007E00568A5420DD2011D0868A2
:103090000028F8D11868111D00E0191D0B68834243
:1030A0000BD01D68A542F8D359B10B6818680838D1
:1030B000A04208D2586808600FE000F02DFC0028FC
:1030C000D7D10020F2BD181908601D1D586828517D
:1030D0001E680F68361B3E601C60096800291DBF12
:1030E00048680028081D0020106003F10800F2BDA8
:1030F00010B5040006D0AFF30080204600F003F8BE
:10310000AFF3008010BD002800D1704770B4A0F16B
:1031100008021368072B2ED913F0070F2BD1DFF805
:103120005C40616809B18A4203D25160626015E077
:103130000146486808B19042FAD308680E18B242B6
:1031400019D3964203D11B180B600A4606E0486863
:1031500010B1134498420ED350604A60506850B189
:103160001368D518854206D1002626600168CB1861
:1031700013604068506070BC70470000885D032891
:10318000012000F0DFBBFFF7B3BF000010B4012245
:1031900091F84C30052B03D291F84D30052B01D31B
:1031A0001000A7E0002800F0A480002900F0A18012
:1031B000514A12684B7963F392428B7913F00303FF
:1031C00063F311420B7A13F0070363F31A62CB79AE
:1031D00063F39E720B7D63F3000291F8243063F376
:1031E000410202600A7910F130031C6862F307049F
:1031F0001C604A79012A0BD18A79002A02D1002267
:10320000826007E08A79012A04D10A68826001E0BD
:1032100001228260CA6802610A694261CA698261E8
:103220000A6AC2610A680262344A12680B7E03F0BD
:10323000FF03120A12021A4391F8303003F0FF0321
:1032400063F3174291F8403003F0FF0363F31F620A
:1032500091F8483003F0FF0363F30F224264284AD9
:10326000126891F8383003F0FF03120A12021A4371
:1032700091F8283003F0FF0363F30F228264214AA0
:1032800012688B7D13F00303920892001A4391F8A1
:10329000253013F0030363F38B2291F82C3013F0E5
:1032A000030363F3051291F8343013F0030363F35F
:1032B000092291F83C3013F0030363F3871291F86D
:1032C000443013F0030363F38302C2640E4A1268AE
:1032D00091F84C3013F00703D208D2001A4391F84A
:1032E0004D3013F0070363F306124265497D816791
:1032F0000022100010BC7047EC6F0810F06F08102F
:10330000F46F0810F86F0810FC6F0810016851F096
:103310000041016070478160704780687047783075
:10332000016851F001010160704710F170010A68F5
:1033300052F001020A60006F70474030016851F09E
:10334000100101607047000070470000002200F08B
:1033500003BB00002DE9F44FDFF8D822DFF8D832A4
:103360001B68DFF8D8422468DFF8D4522D68DFF8F4
:10337000D4623668DFF8D0723F68DFF8D0C2DCF87C
:1033800000C0DFF8CCE2DEF800E0DFF8C882D8F851
:103390000080DFF8C492D9F80090DFF8C0A2DAF814
:1033A00000A0002800F01581002900F012810A68B1
:1033B000022A06D191F82620002A02D15FF0000BE4
:1033C00003E0D1F804B0BBF1010B91F82420002AEE
:1033D00001D0012200E0002262F3104333F44043A5
:1033E0006BF30303022262F3196303600A7812F09D
:1033F000030262F31964046491F82520002A01D0C5
:10340000012200E0002262F38615CA7E002A01D064
:10341000012200E0002262F38A254A7E002A01D0C0
:10342000012200E0002262F308258A7E002A01D0F2
:10343000012200E0002262F349258A6B521E12F03D
:103440000F0262F313450A69521E12F00702ED08DB
:10345000ED0015434A6962F304154A69520862F3A4
:10346000451585640A7B002A01D0012200E0002274
:1034700062F308260A7E002A01D0012200E0002221
:1034800062F349268A68521E12F01F0276097601FD
:103490001643C0F800630A7F02F0FF023F0A3F02B2
:1034A000174391F8202002F0FF0262F31747C0F89B
:1034B000107391F82720002A01D0012200E0002299
:1034C00062F3082C0A69521E12F007025FEADC0C54
:1034D0005FEACC0C52EA0C0C4A6962F3041C4A699C
:1034E000520862F3451CC0F844C00A7B002A01D090
:1034F000012200E0002262F3082E8A68521E12F0B8
:103500001F025FEA5E1E5FEA4E1E52EA0E0E0A6856
:10351000012A01D1012200E0002262F3104EC0F81E
:1035200000E291F83C2002F0FF025FEA18285FEA0F
:10353000082852EA0808C0F8048391F82820002AD5
:1035400001D0012200E0002262F35969CA6A012A0F
:1035500001D1012200E0002262F318694A6B012ABE
:1035600001D1012300E00023009A63F3104991F890
:10357000303003F0FF035FEA19295FEA092953EAB3
:103580000909C0F8509091F8443003F0FF035FEA56
:103590001A2A5FEA0A2A53EA0A0AC0F804A28B6CC4
:1035A000C0F8883F096CC0F8C81F002A10D000205E
:1035B000506000201060002090600020D06000204B
:1035C00010620020D06200201063DFF89400506386
:1035D00000221000BDE8F28FDFF8881001605FF470
:1035E000401101640021816440F20711C0F800130A
:1035F0000022C0F804230022C0F8102300224264F5
:10360000C0F800120021C0F8041200210165002159
:10361000C0F8C81E0021C0F8881E0021C0F8C81FCD
:103620000021C0F8881F0021C0F8081F0021C0F841
:10363000481F70470160AA00BC6F0810C06F0810D7
:10364000C46F0810C86F0810CC6F0810D06F081036
:10365000D46F0810D86F0810DC6F0810E06F0810E6
:10366000EFCDAB000F00000370B505461C00084607
:10367000164604D016F8011BA847641EFAD170BD87
:103680002DE9FC4383B08146884617461D4607E076
:1036900001233A4641464846FFF7E6FF80467F1C35
:1036A0003878E0B12528F3D17978BF1C252912D0CC
:1036B00058295CD0632915D0642918BF692917D00F
:1036C0006F2954D0702957D073295BD0752918BF42
:1036D00078294CD0E4E74046C8478046E0E705B08B
:1036E000BDE8F083286850F8041B2860C9B2F2E7EF
:1036F000286850F8046B2860002E03D52D21404621
:10370000C847804664216F2908BF082205D041F0D0
:103710002000782814BF0A2210220B246429304686
:1037200002D1002E48BF4042B0FBF2FC02FB1C005D
:103730003030641EC3B23A2B05DA0DF804005FEA9C
:103740000C0003D104E040185138F6E7002CEBDC04
:10375000614211F10B0F0DEB04064046BDD0C4F1E0
:103760000B0416F8011BC847641EFAD1B5E7286898
:1037700050F8046B2860C6E7286850F8046B28608E
:103780007821C0E7286850F8046B28603046FFF7BE
:1037900087F904004046A0D016F8011BC847641EF4
:1037A000FAD19AE762B38B0708D0521E11F8013B99
:1037B00000F8013B00F024808B07F6D1830740F02E
:1037C000208000BF103A07D330B4B1E83810103A67
:1037D000A0E83810F9D230BC530724BFB1E8081074
:1037E000A0E8081044BF51F8043B40F8043BD2075E
:1037F00024BF31F8022B20F8022B44BF0B78037052
:103800007047121F17D35B0009D151F8043B20F811
:10381000023B1B0C121F20F8023BF6D20BE051F8C2
:10382000043B00F8013B1B0A20F8023B1B0C121F53
:1038300000F8013BF3D238BF121D521E24BF11F80D
:10384000013B00F8013BF8D870470000002007E07A
:103850000549C2018A5822F00042C301CA50401CE7
:103860003F28F5DB704700000000584030B40021CD
:10387000234A1368234A1468002832D0224A156864
:10388000C5F303250E2D0FD01268C2F303220D2AB3
:1038900028D1827812F00F022409240114430279FE
:1038A000002A15D0012214E0827812F00F021B09C1
:1038B0001B0113430279002A01D0012200E00022FB
:1038C00062F3DF73114AB0F9000042F8203009E0DA
:1038D000002262F3DF740E4AB0F9000042F8204083
:1038E00000E00649080030BC70470A4B1A68002AFD
:1038F00003D01A6800B242F8201070470100560049
:10390000E46F0810E86F08100000204000A020407D
:1039100000C0204030BF02280749086808B10020D5
:1039200070470648C008C00008600549C908C900BA
:10393000091A0160704700BFC85D032807DC07282B
:1039400000E0072880B5AFF30080024A110018207C
:10395000ABBEFBE72600020000B500BF1300964691
:103960009446103928BFA0E80C50FAD85FEA417C91
:1039700028BF0CC048BF40F8042BC90728BF20F857
:10398000022B48BF00F8012B00BD0000DFF8C41176
:103990000868C0F34000002801D0022002E0086857
:1039A00010F001007047DFF8B001006810F001006E
:1039B00070470000C21E022A01D3012002E0C01E8F
:1039C0000860002070471CB5FF246946FFF7F2FF2E
:1039D000C0B2002802D02000C0B207E0DFF8FC012E
:1039E000009950F8210010F00100C0B216BD00008F
:1039F000002801D0032801D3012002E0401E086006
:103A0000002070471CB5FF246946FFF7F1FFC0B2E4
:103A1000002802D02000C0B208E0DFF8C4010099FD
:103A200009010844C06810F00100C0B216BD0000D2
:103A3000DFF8BC010068800810F00100704738B55D
:103A400004002000C0B2082811D3DFF898511822D2
:103A5000DFF89411280000F00DFC0020E87540F616
:103A60005B00DFF888110860002000F03BFCDFF805
:103A7000CC112000C0B251F82000C0F30020002873
:103A800005D0E4B251F8240010F00F0000E0FF2050
:103A900032BD38B504002000C0B2082811D3DFF8C9
:103AA00044511822DFF84011280000F0E3FB002009
:103AB000E8754FF40960DFF834110860002000F069
:103AC00011FCDFF87801E4B250F82400C0F30110D3
:103AD000C0B232BDDFF868211368C3F30723036067
:103AE0001068C0F3C40008607047DFF858211368FD
:103AF000C3F3072303601068C0F3C4000860704775
:103B000038B50400072C11D3DFF8D8501822DFF89D
:103B1000C411280000F0AEFB0020E8754FF4CE7011
:103B2000DFF8C8100860002000F0DCFBDFF8A0011F
:103B300050F8240010F00700010009B2042907D151
:103B4000DFF8880150F8240010F01F0050F4807056
:103B500000B232BD2415264040152640DFF8B012D1
:103B600009688A03920B0260090E11F00101C1710C
:103B7000DFF8A01209680A00D204D20C82800A0081
:103B8000120C02F0FF020281090C01F0FF014181D9
:103B9000DFF84411096811F00F0202730A00C2F342
:103BA000031242730A00120AD204D20CC281090F16
:103BB00011F003010174DFF8641309680A00120AA6
:103BC00012F0070282710A00120CD205D20D428255
:103BD000890F11F001010175704700004016264061
:103BE000001926401C5D0328C4690810905D032855
:103BF000100027401CB50C006946FFF7DBFE0100F2
:103C0000C9B2002901D0C0B217E0DFF8B4040099AE
:103C100050F8210010F07F012160C0F304216160A1
:103C2000C0F30441A1600100090F11F003016173A9
:103C3000C00E10F001002073002016BD4012264077
:103C400008002040080420401CB50C006946FFF71E
:103C5000CFFE0100C9B2002901D0C0B235E0DFF8C3
:103C6000101500980001085800F0FF022260C0F310
:103C700004226260C0F30442A260000F10F003004F
:103C8000207300980001084442681000C00F607360
:103C9000C2F30270002801D0012000E00020A073D0
:103CA00022F07F42226100980001084480680100F0
:103CB000C90F21750100090E11F001016175A07590
:103CC000000C10F00700E075002016BD0001264032
:103CD00000122640406A08103815264080B50100C1
:103CE000DFF868051822FFF76DFD0120DFF8601589
:103CF0000870002002BDDFF85C150968C90F0029B3
:103D000008D0DFF84C150978002907D1002101609F
:103D100003207047002101600320FAE7DFF82C152B
:103D2000096801600020F4E710B50400FFF72EFEDB
:103D3000002803D10020206003200DE0DFF81005EB
:103D40000078002805D0DFF8040580682060002096
:103D500002E000202060032010BD0000DFF8F01416
:103D60000978002905D0DFF8E414496801600020D3
:103D700002E00021016003207047DFF8DC140968CD
:103D8000C90F002908D0DFF8C8140978002907D125
:103D90000021016003207047002101600320FAE741
:103DA000DFF8A814C96801600020F4E7DFF8AC145C
:103DB0000968C90F002908D0DFF894140978002990
:103DC00007D100210160032070470021016003201A
:103DD000FAE7DFF87814096901600020F4E710B50C
:103DE0000400FFF725FE002803D1002020600320F7
:103DF0000DE0DFF85C040078002805D0DFF84C0403
:103E000040692060002002E000202060032010BDF7
:103E1000301526403415264010B50C00C0B2FFF70F
:103E20006FFE00280ED0012810D0022812D0B0F565
:103E3000887F13D040F21111884213D0B0F58A7FE9
:103E400014D017E02000FFF756FF16E02000FFF720
:103E500085FF12E02000FFF767FF0EE02000FFF76C
:103E60008CFF0AE02000FFF7BAFF06E02000FFF712
:103E70009DFF02E000202060032010BD80B50100FE
:103E80000020FFF7C9FF02BD80B50322D2B28242F3
:103E900003D200200860012003E0401CC0B2FFF7FD
:103EA000BBFF02BD18B587B004006846FFF7E6FF08
:103EB0000100C9B2002903D000212160C0B22BE06B
:103EC00001A8FFF74BFE9DF81400022803D10098CB
:103ED0002060002020E0DFF888030068C00F002881
:103EE00008D0FFF760FDC0B2002807D10020206095
:103EF000032011E00098206000200DE00099019857
:103F00004143BDF80800B1FBF0F09DF80B10491CCF
:103F1000B0FBF1F02060002008B010BD3C15264039
:103F2000F0B58BB005000C0069462800C0B2FFF761
:103F3000ABFF0100C9B2002903D000212160C0B24B
:103F4000BCE02800C0B202284CD307A92800C0B2A8
:103F5000401CFFF74FFEC0B2002811D0DFF8046309
:103F60001822DFF80413300000F084F90020F07507
:103F700040F66310DFF8F4120860002000F0B2F998
:103F80004F482900C9B200EB810050F8080CC00F5F
:103F9000002807D09DF82900022807D1009820604A
:103FA00000208BE000982060002087E0EDB26D1CBF
:103FB0002800FFF708FD0100C9B2002902D0C0B2F5
:103FC000FF2803D100202060032077E000990798A4
:103FD00041430898B1FBF0F00999B0FBF1F0206083
:103FE00000206BE001A92800C0B2401CFFF72CFEA6
:103FF000C0B2002811D0DFF86C621822DFF8681216
:10400000300000F037F90020F07540F67F10DFF83F
:104010005C120860002000F065F955482900C9B21B
:1040200009014058C00F002807D09DF81000022851
:1040300007D100982060002040E000982060002018
:104040003CE0EDB26D1C2800FFF7DCFC0100C9B2BA
:10405000002902D0C0B2FF2803D100202060032035
:104060002CE09DF8110001281DD1009A0023019E2B
:1040700000273F0647EA162736060598002136181E
:104080004F41A6FB020106FB031107FB0211029A36
:10409000039BA3FB0223FDF7EDFD000E40EA012088
:1040A000090E206009E00099019841430298B1FB94
:1040B000F0F00399B0FBF1F0206000200BB0F0BDF0
:1040C0000016264010B50323421E0400E4B2002C63
:1040D00003D10800FFF7E6FE0CE01400DBB2E4B207
:1040E000A34204D31000C0B2FFF71AFF02E0C0B22F
:1040F000FFF792FE10BD38B505000C002800C0B2D5
:10410000FFF79DFC0100C9B2FF2904D12000FFF791
:10411000F2FDC0B21BE06946C0B2FFF7D3FF010059
:10412000C9B2002903D000212160C0B20FE02800ED
:10413000C0B2FFF7AEFCC0B2002805D002280BD0F9
:1041400006D303280CD00FE000982060002032BD79
:10415000009840082060F9E7009880082060F5E7A3
:104160000098C0082060F1E7002020600320EEE7FF
:10417000001926401FB5040002A90120FFF7BBFF6C
:104180000100C9B2002903D000212160C0B21AE0A9
:10419000694601A8FFF79EFC01980021421C71F1BD
:1041A000FF335B0143EAD2635201009800211218E9
:1041B0004B4102980021490141EAD0614001FDF7DD
:1041C00059FD2060002004B010BD1FB5040002A9F5
:1041D0000120FFF790FF0100C9B2002903D00021A0
:1041E0002160C0B21AE0694601A8FFF77EFC019881
:1041F0000021421C71F1FF335B0143EAD26352019B
:104200000098002112184B4102980021490141EA0F
:10421000D0614001FDF72EFD2060002004B010BDEC
:1042200080B5DFF84C100A68C2F303220E2A07D0CB
:104230000968C1F303210D2905D1FFF7C6FF02BDAF
:10424000FFF798FFFBE70120F9E70000045D032872
:10425000CC5D032818152640081526400C1526406D
:10426000301526401C5D0328406A0810905D032825
:104270000000204001B58B071AD1830724D1121FFB
:1042800021D351F8043BA3F1013C2CEA030C1CF0B0
:10429000803C04BF40F8043BF1E79CFA8CFCBCFA7C
:1042A0008CF1C1F118018B40CB4040F8043B13E086
:1042B000042A09D311F8013B521E00F8013B5BB1FF
:1042C0008B07F7D1D9E7121D5AB111F8013B521EE5
:1042D00000F8013B03B1F8D111001CBF0022FDF72B
:1042E000E5FD01BD01BEFEE780B5234A23490B6809
:1042F00093423ED00A60224A12684A62214A8A6288
:1043000002684A6042688A608268CA60C2680A615C
:1043100002694A6142698A618269CA61C2690A6244
:10432000F1EE102A12F0900F23D0174A8A62026A27
:10433000CA62426A0A63826A4A63C26A8A63026B19
:10434000CA63426B0A64826B4A64C26B8A64026C01
:10435000CA64426C0A65826C4A65C26C8A65026DE9
:10436000CA65426D0A66826D4A66C26D8A66006ED3
:10437000C86600F00BF801BDFAF9F8F7545C0328A1
:1043800028ED00E0A4A3A2A1ABAAA9A8FEE7000023
:1043900070B504000D00DFF83C682A0092B2120AE2
:1043A000D2B22100C9B2300000F084FE2A00D2B29D
:1043B000F021300000F07EFE70BD2DE9F0470400D2
:1043C0000D00012600275FF000085FF00A0948464B
:1043D00040B2002836D0484640B2052190FBF1F2A9
:1043E00001FB1200002810D1DFF8E8A72A0092B2E2
:1043F000120AD2B22100C9B2504600F05BFE2A0078
:10440000D2B2F021504600F055FEDFF8C8A72100D7
:10441000C9B2504600F076FE0700F021504600F089
:1044200071FE8046280080B23900C9B24246D2B23D
:1044300052EA0122904202D10020060002E0B9F1C6
:104440000109C4E7300040B2BDE8F08770B5040050
:10445000DFF880672100C9B2300000F053FE05008C
:10446000F021300000F04EFEEDB2C0B250EA05205F
:1044700080B270BDF8B50400002500260127DFF8E2
:1044800054075C210172E168C160216801606168C4
:1044900041600020FFF7DAFF0600300080B241F2F1
:1044A000243188420BD0300080B241F21131884271
:1044B00005D0300041F2133180B2884202D1002091
:1044C000070004E06D1C2800C0B21528E1DB3800AD
:1044D000C0B2F2BD2DE9F14F8AB05FF0000A0024AE
:1044E0000020ADF8200000250020ADF806000020D7
:1044F000ADF81E000020ADF81C0000265FF000089B
:1045000000270A98C088ADF808000A984089ADF8DD
:104510000A000A98C089ADF80C000A98408AADF8E4
:104520000E000A98C08AADF810000A98408BADF8CA
:1045300012000A98C08BADF814000A98408CADF8B0
:1045400016000A98C08CADF81A004BF6EF61FE20F9
:10455000FFF71EFF03210C20FFF71AFF0020FFF7D3
:1045600075FF070041F22439380080B248450BD06E
:10457000380080B241F21131884205D0380041F252
:10458000133180B2884200D109E018F10108404699
:10459000C0B2142802DB0120060000E0DEE7300094
:1045A000C0B2002840F01083BDF81000792808DA66
:1045B000BDF8100080B28000ADF806005AF0020A83
:1045C00016E0BDF81000F12808DABDF8100080B23E
:1045D0004000ADF806005AF0010A09E0BDF81000ED
:1045E00040F2E111884203DABDF81000ADF8060090
:1045F000BDF80E00BD2807DABDF80E0080B28000BD
:1046000005005AF0080A16E0BDF80E0040F27911D4
:10461000884207DABDF80E0080B2400005005AF06B
:10462000040A08E0BDF80E0040F2F121884202DAE7
:10463000BDF80E000500DFF8A0B540F24E312800AD
:1046400080B2091ACBF800103800494680B288427F
:104650007AD148F288310720FFF7AFFE80190600B3
:10466000DFF87815BDF81020921C2B009BB2DBF808
:104670000000C3185A43121D91FBF2F00400200001
:1046800080B240F2F511884202DB4FF4FA70040068
:104690002000BDF80C1080B2884201D2ADF80C4069
:1046A000DFF83C15DFF83405BDF80C2090FBF2F282
:1046B000121F2B009BB2DBF80000C31892FBF3F231
:1046C000BDF81000121A0A6047F621600A6882429B
:1046D00002DA0A68022A0EDA0A68022A02DA0220DC
:1046E000086008E00A68824203DB47F62060086041
:1046F00001E008680860DFF8E404BDF80C2090FBD6
:10470000F2F2121F0968BDF81000411892FBF1F196
:10471000280080B2091ACBF80010DBF800003D2811
:1047200003DA3D20CBF8000081E0DBF80000B0F5B3
:10473000806F04DB40F2FF30CBF8000077E0DBF85D
:104740000000CBF8000072E0DFF89014BDF81020F4
:10475000121D2B009BB2DBF80000C3185A43121D38
:1047600091FBF2F00400200080B240F2F511884283
:1047700002DB4FF4FA7004002000BDF80C1080B288
:10478000884201D2ADF80C40DFF85414DFF84C0435
:10479000BDF80C2090FBF2F2121F2B009BB2DBF84D
:1047A0000000C31892FBF3F2BDF81000121A0A6061
:1047B00040F6B9300A68824202DA0A68042A0EDA40
:1047C0000A68042A02DA0420086008E00A688242C3
:1047D00003DB40F6B830086001E008680860DFF8E5
:1047E000FC03BDF80C2090FBF2F2121F0968BDF823
:1047F0001000411892FBF1F1280080B2091ACBF8A1
:104800000010DBF800002B2803DA2B20CBF8000087
:104810000DE0DBF80000B0F5806F04DB40F2FF3004
:10482000CBF8000003E0DBF80000CBF80000DFF875
:10483000B0030168BDF810004118891EBDF80A00D8
:10484000814208DADFF898030168BDF810004118CA
:10485000881EADF80A00280080B2D0F53C70022115
:1048600090FBF1F0BDF91210020012B2D14203DA4E
:10487000010009B2494209E00100BDF9122009B264
:10488000914201DA010001E0BDF91210ADF81210F9
:10489000401CBDF91210411AADF81E10BDF80610EB
:1048A000D1F5F071022291FBF2F1BDF914200B0059
:1048B0001BB2DA4203DA080000B2404209E0080005
:1048C000BDF9142000B2904201DA080001E0BDF900
:1048D0001400ADF81400091DADF82010BDF920102A
:1048E000BDF914004118ADF81C1001211B20FFF781
:1048F00064FD80198DF804009DF804000090BDF857
:104900001E100120FFF759FD009940188DF8040092
:104910009DF804000090BDF81C100220FFF74DFD2B
:10492000009940188DF804009DF804000090BDF82F
:1049300006100320FFF741FD009940188DF8040090
:104940009DF804000090290089B20420FFF735FD8E
:10495000009940188DF804009DF804000090DBF8E1
:104960000000010089B20520FFF727FD00994018DB
:104970008DF804009DF804B099480068010089B2E0
:104980000620FFF71AFD10EB0B0B8DF804B09DF815
:1049900004B04FF4B2710A20FFF70FFD10EB0B0BC0
:1049A0008DF804B09DF804B040F2BB110820FFF769
:1049B00004FD10EB0B0B8DF804B09DF804B040F231
:1049C000D9110920FFF7F9FC10EB0B0BBDF808001B
:1049D000002807D1BDF80A100B20FFF7EEFC10EB02
:1049E0000B0083465AF44C7189B20D20FFF7E5FCA9
:1049F00010EB0B008DF804009DF804602721312096
:104A0000FFF7DBFC86198DF804609DF804601A211D
:104A10003220FFF7D2FC86198DF804609DF80460FF
:104A200005213320FFF7C9FC8619BDF81610352083
:104A3000FFF7C3FC80198DF80400380080B24845A8
:104A400029D1504680B2042801DB012100E0002179
:104A50009DF80460C9B2090189B27220FFF7ADFC6C
:104A600086198DF804609DF8049040F201110F2022
:104A7000FFF7A3FC10EB090981214720FFF79DFCFC
:104A800083461BEB090BEC214820FFF796FC060040
:104A900016EB0B0615E09DF8049011210F20FFF78F
:104AA0008CFC10EB090981214720FFF786FC834627
:104AB0001BEB090BE7214820FFF77FFC060016EBF4
:104AC0000B064FF462710720FFF777FC80198DF811
:104AD00004009DF804B040F203311C20FFF76DFC88
:104AE00010EB0B0B03212C20FFF767FC814619EB21
:104AF0000B09BDF80800002807D10021AF20FFF7FF
:104B00005CFC060016EB09064DE0BDF80810A52078
:104B1000FFF753FC060016EB09060221A620FFF75B
:104B20004CFC83461BEB060B0221A820FFF745FC3B
:104B300010EB0B008DF80400BDF80E10BDF810004E
:104B40004143042091FBF0F0B0F5803F08DABDF856
:104B50000E10BDF810004143042091FBF0F101E07C
:104B60004FF6FF719DF8046089B2B020FFF725FC75
:104B700086198DF804609DF804901421AE20FFF78B
:104B80001CFC10EB090940F20111AF20FFF715FCE6
:104B900083461BEB090BBDF80A10AD20FFF70DFC97
:104BA000060016EB0B06BDF808000E490860BDF8BC
:104BB0000A000D490860BDF810000C4908604DF668
:104BC000AD61FE20FFF7E4FB3000C0B20BB0BDE8E2
:104BD000F08F0000785D0328B85D0328C0FC9B01BE
:104BE000B45D0328BC5D0328C05D0328C45D0328B1
:104BF0001CB50400002C01D0012000E0002041225F
:104C0000DFF8A414C0B2FCF76AFDDFF8A0040121AC
:104C10002278D21010EBC212237813F0070311FA96
:104C200003F313602279D21010EBC210227912F034
:104C3000070211FA02F20260E06800900098421E3A
:104C400000920028FAD1DFF868242079C01012EB16
:104C5000C010237913F0070311FA03F30360E0682F
:104C600000900098431E00930028FAD12078C010CD
:104C700012EBC012207810F0070081401160E0684C
:104C800000900098411E00910028FAD113BD1CB578
:104C90000400002C01D0012000E000205522DFF8A4
:104CA0000814C0B2FCF71BFDDFF8040401212279CF
:104CB000D21010EBC212237913F0070311FA03F399
:104CC00013602278D21010EBC210227812F0070283
:104CD00011FA02F20260E06800900098421E009211
:104CE0000028FAD1DFF8C4232078C01012EBC010DE
:104CF000237813F0070311FA03F30360E0680090D0
:104D00000098431E00930028FAD12079C01012EBBE
:104D1000C012207910F0070081401160E068009017
:104D20000098411E00910028FAD113BD38B5040047
:104D30000D00002C01D0012000E000206A22DFF8E5
:104D40006813C0B2FCF7CBFCDFF8641301222078B3
:104D5000C01011EBC010237813F0070312FA03F30D
:104D60000360EDB2002D0CD02079C010DFF83C3389
:104D700013EBC013207910F0070012FA00F018604E
:104D800009E02079C01011EBC010237913F007035C
:104D900012FA03F30360E06800900098431E00934A
:104DA0000028FAD1DFF804332078C01013EBC010CC
:104DB000257815F0070512FA05F50560E068009002
:104DC0000098451E00950028FAD12078C01011EBFC
:104DD000C011207810F0070012FA00F00860207966
:104DE000C01013EBC013207910F0070082401A6046
:104DF00031BD2DE9FC410400002C01D0012000E070
:104E000000208622DFF8A012C0B2FCF768FC002563
:104E1000DFF8EC6201272078C01016EBC010217873
:104E200011F0070117FA01F10160DFF880822079A3
:104E3000C01018EBC010217911F0070117FA01F129
:104E40000160002200216068C0B2FCF763FDE068E9
:104E500000900098411E00910028FAD12078C010DF
:104E600018EBC018207810F0070017FA00F0C8F807
:104E70000000E06800900098411E00910028FAD1DF
:104E80006068C0B2FCF735FD002800D0012520780D
:104E9000C01016EBC016207810F00700874037606E
:104EA000032201216068C0B2FCF734FDE068009085
:104EB0000098411E00910028FAD12800C0B2BDE838
:104EC000F6817CB504000D00002C01D0012000E02B
:104ED0000020A822DFF8D011C0B2FCF700FC80212E
:104EE0000800C0B200284ED02800C0B208420CD042
:104EF0000120227912F0070290402279D210DFF8C7
:104F0000AC3113EBC21318600BE00120227912F0D0
:104F1000070290402279D210DFF8E43113EBC2137C
:104F20001860C9B24908E068400800900098421E25
:104F300000920028FAD10122207810F0070012FA1E
:104F400000F02378DB10DFF8646116EBC3163060E5
:104F5000E06800900098431E00930028FAD1207862
:104F600010F0070082402078C010DFF8943113EB76
:104F7000C0131A60E068400800900098421E00923A
:104F80000028FAD1ACE72000FFF733FF012801D158
:104F9000002000E00120C0B276BD2DE9FC470400EE
:104FA0000D00002C01D0012000E00020C222DFF81B
:104FB000F810C0B2FCF793FB00260827DFF8F0805A
:104FC0005FF001092078C01018EBC010217811F0B3
:104FD000070119FA01F10160E06800900098411E94
:104FE00000910028FAD1DFF8C4A02079C0101AEB94
:104FF000C010217911F0070119FA01F101600022B6
:1050000000216068C0B2FCF785FC27E02078C01062
:1050100018EBC010217811F0070119FA01F10160B5
:10502000E06800900098411E00910028FAD1207895
:10503000C0101AEBC010217811F0070119FA01F124
:105040000160E06800900098411E00910028FAD1AC
:105050006068C0B2FCF74DFC50EA46063800471EB7
:10506000C0B20028D2D12078C01018EBC018207828
:1050700010F0070019FA00F9C8F800900322012186
:105080006068C0B2FCF746FCE06800900098411EE2
:1050900000910028FAD12900C9B22000FFF746FE8E
:1050A0003000C0B2BDE8F687BC6A08100800314085
:1050B0000400314070B504000D001600002C01D032
:1050C000012000E0002040F28D224749C0B2FCF7E9
:1050D00006FB2000FFF78CFD217A4900C9B22000B1
:1050E000FFF7EFFE2900C9B22000FFF7EAFE31000A
:1050F000C9B22000FFF7E5FE2000FFF7C8FD70BD34
:105100000400314038B504000D00002C01D001200E
:1051100000E0002040F29F223349C0B2FCF7DFFAE2
:1051200000202000FFF764FD217A4900C9B2200069
:10513000FFF7C7FE2900C9B22000FFF7C2FE20001A
:10514000FFF7A5FD2000FFF753FD217A490051F03C
:105150000101C9B22000FFF7B4FE01212000FFF7D2
:105160001CFF05002000FFF792FD2800C0B232BDF1
:105170002DE9F843040088461700002C01D00120D7
:1051800000E00020089D1E00DFF85C9040F2BA228B
:105190004946C0B2FCF7A3FA30002900C0B2C9B238
:1051A000884201D0012000E0002040F2BB224946A5
:1051B000C0B2FCF794FA3000C0B220602800C0B240
:1051C000606084F80880E760032301220121300039
:1051D000C0B2FCF7C6FB0323012201212800C0B2A4
:1051E000FCF7BFFBBDE8F183BC6A081000000000BB
:1051F000000000000000000000000000000000F8B7
:1052000000000000000000333000000000100C0619
:10521000100C0600000000000000000040C07840B4
:10522000C0784000043F04043F040400007088FC80
:1052300008300000001820FF211E0000F008F000D8
:10524000E018000000211C031E211E0000F0088849
:10525000700000001E2123241927211010160E00B3
:10526000000000000000000000000000000000E05E
:105270001804020000000007182040000002041873
:10528000E00000000040201807000000404080F0CF
:10529000804040000202010F01020200000000F005
:1052A000000000000101011F0101010000000000D9
:1052B0000000000080B0700000000000000000004E
:1052C00000000000000101010101010100000000D7
:1052D000000000000030300000000000000000006E
:1052E00080601804006018060100000000E010084B
:1052F0000810E000000F102020100F00001010F820
:10530000000000000020203F20200000007008085E
:1053100008887000003028242221300000300888DE
:10532000884830000018202020110E000000C02006
:1053300010F8000000070424243F240000F8088827
:10534000880808000019212020110E0000E01088B4
:1053500088180000000F112020110E0000380808E6
:10536000C83808000000003F0000000000708808F6
:1053700008887000001C222121221C0000E0100877
:105380000810E0000000312222110F00000000C0D0
:10539000C00000000000003030000000000000806D
:1053A000000000000000806000000000000080405D
:1053B0002010080000010204081020004040404076
:1053C00040404000040404040404040000081020C9
:1053D000408000000020100804020100007048080E
:1053E0000808F0000000003036010000C030C82876
:1053F000E810E0000718272423140B000000C03831
:10540000E0000000203C23020227382008F88888AA
:1054100088700000203F202020110E00C0300808B6
:1054200008083800071820202010080008F808088D
:105430000810E000203F202020100F0008F8888886
:10544000E8081000203F20202320180008F8888852
:10545000E8081000203F200003000000C0300808CA
:105460000838000007182020221E020008F8080053
:105470000008F808203F210101213F20000808F81A
:10548000080800000020203F20200000000008083D
:10549000F8080800C08080807F00000008F888C0FD
:1054A00028180800203F20012638200008F80800AE
:1054B00000000000203F20202020300008F8F800E5
:1054C000F8F80800203F003F003F200008F830C0F7
:1054D0000008F808203F200007183F00E0100808E7
:1054E0000810E0000F10202020100F0008F8080816
:1054F0000808F000203F210101010000E010080829
:105500000810E0000F18242438504F0008F888884D
:1055100088887000203F2000030C3020007088082D
:10552000080838000038202121221C00180808F83B
:10553000080818000000203F2000000008F80800BC
:105540000008F808001F202020201F00087888008D
:1055500000C83808000007380E010000F80800F8FD
:105560000008F800033C0700073C030008186880A7
:105570008068180820302C03032C30200838C8001D
:10558000C83808000000203F20000000100808086C
:10559000C83808002038262120201800000000FE0E
:1055A000020202000000007F40404000000C30C0BA
:1055B00000000000000000010638C00000020202E6
:1055C000FE000000004040407F0000000000040298
:1055D00002020400000000000000000000000000C3
:1055E00000000000808080808080808000020204B3
:1055F00000000000000000000000000000008080AB
:10560000808000000019242222223F2008F8008018
:1056100080000000003F112020110E0000000080DB
:1056200080800000000E112020201100000000806A
:105630008088F800000E112020103F20000080809C
:1056400080800000001F222222221300008080F0B0
:10565000888888180020203F2020000000008080DB
:1056600080808000006B94949493600008F8008020
:1056700080800000203F210000203F20008098987B
:10568000000000000020203F2020000000000080DB
:105690009898000000C08080807F000008F800001B
:1056A00080808000203F24022D302000000808F870
:1056B000000000000020203F20200000808080802B
:1056C00080808000203F20003F20003F80800080BD
:1056D00080800000203F210000203F2000008080CB
:1056E00080800000001F202020201F00808000807C
:1056F0008000000080FFA12020110E00000000802B
:1057000080808000000E112020A0FF80808080001B
:105710008080800020203F21200001000000808048
:10572000808080000033242424241900008080E03D
:10573000808000000000001F20200000808000000A
:1057400000808000001F202020103F2080808000EB
:105750000080808000010E300806010080800080FB
:10576000008080800F300C030C300F000080800020
:10577000808080000020312E0E312000808080004B
:105780000080808080818E701806010000808080FB
:10579000808080000021302C222130000000000099
:1057A000807C020200000000003F4040000000003A
:1057B000FF00000000000000FF0000000002027C6B
:1057C000800000000040403F000000000006010192
:1057D0000202040400000000000000002DE9F04176
:1057E000C0B0002400250026002100210021002156
:1057F000002207E000236F4694460FFA8CFC07F85E
:105800000C30521C13001BB2B3F5807FF2DB002278
:105810001EE05FF05E0E6F4612FB0EFC844498465D
:105820000FFA88F81CF808C012FB0EFE8644984652
:105830000FFA88F81EF808E017F80EE01EF1010EC6
:1058400007F80CE05B1C1F003FB25E2FE1DB521C2F
:1058500013001BB23C2B01DA0023F4E7002200E026
:10586000521C100000B2B0F5807F05DA68461300C4
:105870001BB2C05C0028F3D0FF2300E05B1E1000C9
:105880001F0000B23FB2B84205DA684617003FB2C7
:10589000C05D0028F2D01800170000B23FB2B84235
:1058A00002D1180000B28AE0100000B2401C1F00B4
:1058B0003FB2B84202D1100000B280E0100008E010
:1058C0006F4684460FFA8CFC17F80C7054FA87F474
:1058D000401C1F0084463FB20FFA8CFC6745EFDA8C
:1058E000002794460BE06846E6460FFA8EFE10F855
:1058F0000EE0604600B200FB0E771CF1010C1800B0
:10590000E64600B20FFA8EFE7045ECDAFFEE002A92
:105910004CE0684694460FFA8CFC10F80CC015EB6E
:105920000C05B4EB050C00EE90CA00EE105AB8EE70
:10593000400A01EE104AB8EE411A80EE011AB8EEA4
:10594000E00A01EE904AF8EE611AC0EE211A944680
:105950000FFA8CFC10F80CC0100000B200FB0C66B3
:10596000B81B00EE100A02EE106AB8EE422A03EEEF
:10597000105AB8EE433A82EE032AB8EEC00AF8EEA7
:10598000E00A80EE200A61EE210A32EE401A60EE53
:10599000810A32EE400A20EE800AF4EE402AF1EE4F
:1059A00010FA02D5F0EE402A1100521C10009C465D
:1059B00000B20FFA8CFC6045ABDB080000B240B0CF
:1059C000BDE8F08170B5002100210021C0B200289F
:1059D00003D16C48FFF702FF0100002000E0401CEB
:1059E000020092B23C2A3CDA002213E0664C050029
:1059F000ADB25D432C441500ADB200266655634C34
:105A00000500ADB203FB05F323441400A4B2FF2547
:105A10001D5524E013009BB25E2BE0DA5E230C00E0
:105A2000584D0600B6B25E4335441600B6B2AD5DC1
:105A3000A4B2ADB2AC42D9D2534C0500ADB25D4375
:105A40002C441500ADB201266655504C0500ADB290
:105A500003FB05F323441400A4B200251D55521C7A
:105A6000D8E770BD30B4012100E0491C3B295EDA63
:105A700001222BE003FB01F02044805C012854D17B
:105A800003FB01F02044104410F85E0C03FB01F509
:105A90002544154495F85E5055FA80F003FB01F556
:105AA000254415446D7850FA85F003FB01F5254433
:105AB000154415F8015C50FA85F0022835DA03FB2D
:105AC00001F304EB0300002383542EE05D2ACCDABB
:105AD0005E232D4C03FB01F02044805C0028C9D1DB
